{
  "_format": "hh-sol-artifact-1",
  "contractName": "Governance",
  "sourceName": "contracts/Governance.sol",
  "abi": [
    {
      "inputs": [
        {
          "internalType": "contract ERC20Votes",
          "name": "_token",
          "type": "address"
        },
        {
          "internalType": "contract TimelockController",
          "name": "_timelock",
          "type": "address"
        },
        {
          "internalType": "uint256",
          "name": "_quorum",
          "type": "uint256"
        },
        {
          "internalType": "uint256",
          "name": "_votingDelay",
          "type": "uint256"
        },
        {
          "internalType": "uint256",
          "name": "_votingPeriod",
          "type": "uint256"
        }
      ],
      "stateMutability": "nonpayable",
      "type": "constructor"
    },
    {
      "inputs": [],
      "name": "Empty",
      "type": "error"
    },
    {
      "anonymous": false,
      "inputs": [
        {
          "indexed": false,
          "internalType": "uint256",
          "name": "proposalId",
          "type": "uint256"
        }
      ],
      "name": "ProposalCanceled",
      "type": "event"
    },
    {
      "anonymous": false,
      "inputs": [
        {
          "indexed": false,
          "internalType": "uint256",
          "name": "proposalId",
          "type": "uint256"
        },
        {
          "indexed": false,
          "internalType": "address",
          "name": "proposer",
          "type": "address"
        },
        {
          "indexed": false,
          "internalType": "address[]",
          "name": "targets",
          "type": "address[]"
        },
        {
          "indexed": false,
          "internalType": "uint256[]",
          "name": "values",
          "type": "uint256[]"
        },
        {
          "indexed": false,
          "internalType": "string[]",
          "name": "signatures",
          "type": "string[]"
        },
        {
          "indexed": false,
          "internalType": "bytes[]",
          "name": "calldatas",
          "type": "bytes[]"
        },
        {
          "indexed": false,
          "internalType": "uint256",
          "name": "startBlock",
          "type": "uint256"
        },
        {
          "indexed": false,
          "internalType": "uint256",
          "name": "endBlock",
          "type": "uint256"
        },
        {
          "indexed": false,
          "internalType": "string",
          "name": "description",
          "type": "string"
        }
      ],
      "name": "ProposalCreated",
      "type": "event"
    },
    {
      "anonymous": false,
      "inputs": [
        {
          "indexed": false,
          "internalType": "uint256",
          "name": "proposalId",
          "type": "uint256"
        }
      ],
      "name": "ProposalExecuted",
      "type": "event"
    },
    {
      "anonymous": false,
      "inputs": [
        {
          "indexed": false,
          "internalType": "uint256",
          "name": "proposalId",
          "type": "uint256"
        },
        {
          "indexed": false,
          "internalType": "uint256",
          "name": "eta",
          "type": "uint256"
        }
      ],
      "name": "ProposalQueued",
      "type": "event"
    },
    {
      "anonymous": false,
      "inputs": [
        {
          "indexed": false,
          "internalType": "uint256",
          "name": "oldQuorumNumerator",
          "type": "uint256"
        },
        {
          "indexed": false,
          "internalType": "uint256",
          "name": "newQuorumNumerator",
          "type": "uint256"
        }
      ],
      "name": "QuorumNumeratorUpdated",
      "type": "event"
    },
    {
      "anonymous": false,
      "inputs": [
        {
          "indexed": false,
          "internalType": "address",
          "name": "oldTimelock",
          "type": "address"
        },
        {
          "indexed": false,
          "internalType": "address",
          "name": "newTimelock",
          "type": "address"
        }
      ],
      "name": "TimelockChange",
      "type": "event"
    },
    {
      "anonymous": false,
      "inputs": [
        {
          "indexed": true,
          "internalType": "address",
          "name": "voter",
          "type": "address"
        },
        {
          "indexed": false,
          "internalType": "uint256",
          "name": "proposalId",
          "type": "uint256"
        },
        {
          "indexed": false,
          "internalType": "uint8",
          "name": "support",
          "type": "uint8"
        },
        {
          "indexed": false,
          "internalType": "uint256",
          "name": "weight",
          "type": "uint256"
        },
        {
          "indexed": false,
          "internalType": "string",
          "name": "reason",
          "type": "string"
        }
      ],
      "name": "VoteCast",
      "type": "event"
    },
    {
      "anonymous": false,
      "inputs": [
        {
          "indexed": true,
          "internalType": "address",
          "name": "voter",
          "type": "address"
        },
        {
          "indexed": false,
          "internalType": "uint256",
          "name": "proposalId",
          "type": "uint256"
        },
        {
          "indexed": false,
          "internalType": "uint8",
          "name": "support",
          "type": "uint8"
        },
        {
          "indexed": false,
          "internalType": "uint256",
          "name": "weight",
          "type": "uint256"
        },
        {
          "indexed": false,
          "internalType": "string",
          "name": "reason",
          "type": "string"
        },
        {
          "indexed": false,
          "internalType": "bytes",
          "name": "params",
          "type": "bytes"
        }
      ],
      "name": "VoteCastWithParams",
      "type": "event"
    },
    {
      "inputs": [],
      "name": "BALLOT_TYPEHASH",
      "outputs": [
        {
          "internalType": "bytes32",
          "name": "",
          "type": "bytes32"
        }
      ],
      "stateMutability": "view",
      "type": "function"
    },
    {
      "inputs": [],
      "name": "COUNTING_MODE",
      "outputs": [
        {
          "internalType": "string",
          "name": "",
          "type": "string"
        }
      ],
      "stateMutability": "pure",
      "type": "function"
    },
    {
      "inputs": [],
      "name": "EXTENDED_BALLOT_TYPEHASH",
      "outputs": [
        {
          "internalType": "bytes32",
          "name": "",
          "type": "bytes32"
        }
      ],
      "stateMutability": "view",
      "type": "function"
    },
    {
      "inputs": [
        {
          "internalType": "uint256",
          "name": "proposalId",
          "type": "uint256"
        },
        {
          "internalType": "uint8",
          "name": "support",
          "type": "uint8"
        }
      ],
      "name": "castVote",
      "outputs": [
        {
          "internalType": "uint256",
          "name": "",
          "type": "uint256"
        }
      ],
      "stateMutability": "nonpayable",
      "type": "function"
    },
    {
      "inputs": [
        {
          "internalType": "uint256",
          "name": "proposalId",
          "type": "uint256"
        },
        {
          "internalType": "uint8",
          "name": "support",
          "type": "uint8"
        },
        {
          "internalType": "uint8",
          "name": "v",
          "type": "uint8"
        },
        {
          "internalType": "bytes32",
          "name": "r",
          "type": "bytes32"
        },
        {
          "internalType": "bytes32",
          "name": "s",
          "type": "bytes32"
        }
      ],
      "name": "castVoteBySig",
      "outputs": [
        {
          "internalType": "uint256",
          "name": "",
          "type": "uint256"
        }
      ],
      "stateMutability": "nonpayable",
      "type": "function"
    },
    {
      "inputs": [
        {
          "internalType": "uint256",
          "name": "proposalId",
          "type": "uint256"
        },
        {
          "internalType": "uint8",
          "name": "support",
          "type": "uint8"
        },
        {
          "internalType": "string",
          "name": "reason",
          "type": "string"
        }
      ],
      "name": "castVoteWithReason",
      "outputs": [
        {
          "internalType": "uint256",
          "name": "",
          "type": "uint256"
        }
      ],
      "stateMutability": "nonpayable",
      "type": "function"
    },
    {
      "inputs": [
        {
          "internalType": "uint256",
          "name": "proposalId",
          "type": "uint256"
        },
        {
          "internalType": "uint8",
          "name": "support",
          "type": "uint8"
        },
        {
          "internalType": "string",
          "name": "reason",
          "type": "string"
        },
        {
          "internalType": "bytes",
          "name": "params",
          "type": "bytes"
        }
      ],
      "name": "castVoteWithReasonAndParams",
      "outputs": [
        {
          "internalType": "uint256",
          "name": "",
          "type": "uint256"
        }
      ],
      "stateMutability": "nonpayable",
      "type": "function"
    },
    {
      "inputs": [
        {
          "internalType": "uint256",
          "name": "proposalId",
          "type": "uint256"
        },
        {
          "internalType": "uint8",
          "name": "support",
          "type": "uint8"
        },
        {
          "internalType": "string",
          "name": "reason",
          "type": "string"
        },
        {
          "internalType": "bytes",
          "name": "params",
          "type": "bytes"
        },
        {
          "internalType": "uint8",
          "name": "v",
          "type": "uint8"
        },
        {
          "internalType": "bytes32",
          "name": "r",
          "type": "bytes32"
        },
        {
          "internalType": "bytes32",
          "name": "s",
          "type": "bytes32"
        }
      ],
      "name": "castVoteWithReasonAndParamsBySig",
      "outputs": [
        {
          "internalType": "uint256",
          "name": "",
          "type": "uint256"
        }
      ],
      "stateMutability": "nonpayable",
      "type": "function"
    },
    {
      "inputs": [
        {
          "internalType": "address[]",
          "name": "targets",
          "type": "address[]"
        },
        {
          "internalType": "uint256[]",
          "name": "values",
          "type": "uint256[]"
        },
        {
          "internalType": "bytes[]",
          "name": "calldatas",
          "type": "bytes[]"
        },
        {
          "internalType": "bytes32",
          "name": "descriptionHash",
          "type": "bytes32"
        }
      ],
      "name": "execute",
      "outputs": [
        {
          "internalType": "uint256",
          "name": "",
          "type": "uint256"
        }
      ],
      "stateMutability": "payable",
      "type": "function"
    },
    {
      "inputs": [
        {
          "internalType": "address",
          "name": "account",
          "type": "address"
        },
        {
          "internalType": "uint256",
          "name": "blockNumber",
          "type": "uint256"
        }
      ],
      "name": "getVotes",
      "outputs": [
        {
          "internalType": "uint256",
          "name": "",
          "type": "uint256"
        }
      ],
      "stateMutability": "view",
      "type": "function"
    },
    {
      "inputs": [
        {
          "internalType": "address",
          "name": "account",
          "type": "address"
        },
        {
          "internalType": "uint256",
          "name": "blockNumber",
          "type": "uint256"
        },
        {
          "internalType": "bytes",
          "name": "params",
          "type": "bytes"
        }
      ],
      "name": "getVotesWithParams",
      "outputs": [
        {
          "internalType": "uint256",
          "name": "",
          "type": "uint256"
        }
      ],
      "stateMutability": "view",
      "type": "function"
    },
    {
      "inputs": [
        {
          "internalType": "uint256",
          "name": "proposalId",
          "type": "uint256"
        },
        {
          "internalType": "address",
          "name": "account",
          "type": "address"
        }
      ],
      "name": "hasVoted",
      "outputs": [
        {
          "internalType": "bool",
          "name": "",
          "type": "bool"
        }
      ],
      "stateMutability": "view",
      "type": "function"
    },
    {
      "inputs": [
        {
          "internalType": "address[]",
          "name": "targets",
          "type": "address[]"
        },
        {
          "internalType": "uint256[]",
          "name": "values",
          "type": "uint256[]"
        },
        {
          "internalType": "bytes[]",
          "name": "calldatas",
          "type": "bytes[]"
        },
        {
          "internalType": "bytes32",
          "name": "descriptionHash",
          "type": "bytes32"
        }
      ],
      "name": "hashProposal",
      "outputs": [
        {
          "internalType": "uint256",
          "name": "",
          "type": "uint256"
        }
      ],
      "stateMutability": "pure",
      "type": "function"
    },
    {
      "inputs": [],
      "name": "name",
      "outputs": [
        {
          "internalType": "string",
          "name": "",
          "type": "string"
        }
      ],
      "stateMutability": "view",
      "type": "function"
    },
    {
      "inputs": [
        {
          "internalType": "address",
          "name": "",
          "type": "address"
        },
        {
          "internalType": "address",
          "name": "",
          "type": "address"
        },
        {
          "internalType": "uint256[]",
          "name": "",
          "type": "uint256[]"
        },
        {
          "internalType": "uint256[]",
          "name": "",
          "type": "uint256[]"
        },
        {
          "internalType": "bytes",
          "name": "",
          "type": "bytes"
        }
      ],
      "name": "onERC1155BatchReceived",
      "outputs": [
        {
          "internalType": "bytes4",
          "name": "",
          "type": "bytes4"
        }
      ],
      "stateMutability": "nonpayable",
      "type": "function"
    },
    {
      "inputs": [
        {
          "internalType": "address",
          "name": "",
          "type": "address"
        },
        {
          "internalType": "address",
          "name": "",
          "type": "address"
        },
        {
          "internalType": "uint256",
          "name": "",
          "type": "uint256"
        },
        {
          "internalType": "uint256",
          "name": "",
          "type": "uint256"
        },
        {
          "internalType": "bytes",
          "name": "",
          "type": "bytes"
        }
      ],
      "name": "onERC1155Received",
      "outputs": [
        {
          "internalType": "bytes4",
          "name": "",
          "type": "bytes4"
        }
      ],
      "stateMutability": "nonpayable",
      "type": "function"
    },
    {
      "inputs": [
        {
          "internalType": "address",
          "name": "",
          "type": "address"
        },
        {
          "internalType": "address",
          "name": "",
          "type": "address"
        },
        {
          "internalType": "uint256",
          "name": "",
          "type": "uint256"
        },
        {
          "internalType": "bytes",
          "name": "",
          "type": "bytes"
        }
      ],
      "name": "onERC721Received",
      "outputs": [
        {
          "internalType": "bytes4",
          "name": "",
          "type": "bytes4"
        }
      ],
      "stateMutability": "nonpayable",
      "type": "function"
    },
    {
      "inputs": [
        {
          "internalType": "uint256",
          "name": "proposalId",
          "type": "uint256"
        }
      ],
      "name": "proposalDeadline",
      "outputs": [
        {
          "internalType": "uint256",
          "name": "",
          "type": "uint256"
        }
      ],
      "stateMutability": "view",
      "type": "function"
    },
    {
      "inputs": [
        {
          "internalType": "uint256",
          "name": "proposalId",
          "type": "uint256"
        }
      ],
      "name": "proposalEta",
      "outputs": [
        {
          "internalType": "uint256",
          "name": "",
          "type": "uint256"
        }
      ],
      "stateMutability": "view",
      "type": "function"
    },
    {
      "inputs": [],
      "name": "proposalIterator",
      "outputs": [
        {
          "internalType": "uint256",
          "name": "",
          "type": "uint256"
        }
      ],
      "stateMutability": "view",
      "type": "function"
    },
    {
      "inputs": [
        {
          "internalType": "uint256",
          "name": "proposalId",
          "type": "uint256"
        }
      ],
      "name": "proposalSnapshot",
      "outputs": [
        {
          "internalType": "uint256",
          "name": "",
          "type": "uint256"
        }
      ],
      "stateMutability": "view",
      "type": "function"
    },
    {
      "inputs": [],
      "name": "proposalThreshold",
      "outputs": [
        {
          "internalType": "uint256",
          "name": "",
          "type": "uint256"
        }
      ],
      "stateMutability": "view",
      "type": "function"
    },
    {
      "inputs": [
        {
          "internalType": "uint256",
          "name": "proposalId",
          "type": "uint256"
        }
      ],
      "name": "proposalVotes",
      "outputs": [
        {
          "internalType": "uint256",
          "name": "againstVotes",
          "type": "uint256"
        },
        {
          "internalType": "uint256",
          "name": "forVotes",
          "type": "uint256"
        },
        {
          "internalType": "uint256",
          "name": "abstainVotes",
          "type": "uint256"
        }
      ],
      "stateMutability": "view",
      "type": "function"
    },
    {
      "inputs": [
        {
          "internalType": "uint256",
          "name": "",
          "type": "uint256"
        }
      ],
      "name": "proposals",
      "outputs": [
        {
          "internalType": "uint256",
          "name": "iterator",
          "type": "uint256"
        },
        {
          "internalType": "string",
          "name": "description",
          "type": "string"
        },
        {
          "internalType": "uint256",
          "name": "proposalId",
          "type": "uint256"
        },
        {
          "internalType": "uint256",
          "name": "startBlock",
          "type": "uint256"
        },
        {
          "internalType": "uint256",
          "name": "endBlock",
          "type": "uint256"
        }
      ],
      "stateMutability": "view",
      "type": "function"
    },
    {
      "inputs": [
        {
          "internalType": "address[]",
          "name": "targets",
          "type": "address[]"
        },
        {
          "internalType": "uint256[]",
          "name": "values",
          "type": "uint256[]"
        },
        {
          "internalType": "bytes[]",
          "name": "calldatas",
          "type": "bytes[]"
        },
        {
          "internalType": "string",
          "name": "description",
          "type": "string"
        }
      ],
      "name": "propose",
      "outputs": [
        {
          "internalType": "uint256",
          "name": "",
          "type": "uint256"
        }
      ],
      "stateMutability": "nonpayable",
      "type": "function"
    },
    {
      "inputs": [
        {
          "internalType": "address[]",
          "name": "targets",
          "type": "address[]"
        },
        {
          "internalType": "uint256[]",
          "name": "values",
          "type": "uint256[]"
        },
        {
          "internalType": "bytes[]",
          "name": "calldatas",
          "type": "bytes[]"
        },
        {
          "internalType": "bytes32",
          "name": "descriptionHash",
          "type": "bytes32"
        }
      ],
      "name": "queue",
      "outputs": [
        {
          "internalType": "uint256",
          "name": "",
          "type": "uint256"
        }
      ],
      "stateMutability": "nonpayable",
      "type": "function"
    },
    {
      "inputs": [
        {
          "internalType": "uint256",
          "name": "blockNumber",
          "type": "uint256"
        }
      ],
      "name": "quorum",
      "outputs": [
        {
          "internalType": "uint256",
          "name": "",
          "type": "uint256"
        }
      ],
      "stateMutability": "view",
      "type": "function"
    },
    {
      "inputs": [],
      "name": "quorumDenominator",
      "outputs": [
        {
          "internalType": "uint256",
          "name": "",
          "type": "uint256"
        }
      ],
      "stateMutability": "view",
      "type": "function"
    },
    {
      "inputs": [],
      "name": "quorumNumerator",
      "outputs": [
        {
          "internalType": "uint256",
          "name": "",
          "type": "uint256"
        }
      ],
      "stateMutability": "view",
      "type": "function"
    },
    {
      "inputs": [
        {
          "internalType": "address",
          "name": "target",
          "type": "address"
        },
        {
          "internalType": "uint256",
          "name": "value",
          "type": "uint256"
        },
        {
          "internalType": "bytes",
          "name": "data",
          "type": "bytes"
        }
      ],
      "name": "relay",
      "outputs": [],
      "stateMutability": "nonpayable",
      "type": "function"
    },
    {
      "inputs": [
        {
          "internalType": "uint256",
          "name": "proposalId",
          "type": "uint256"
        }
      ],
      "name": "state",
      "outputs": [
        {
          "internalType": "enum IGovernor.ProposalState",
          "name": "",
          "type": "uint8"
        }
      ],
      "stateMutability": "view",
      "type": "function"
    },
    {
      "inputs": [
        {
          "internalType": "bytes4",
          "name": "interfaceId",
          "type": "bytes4"
        }
      ],
      "name": "supportsInterface",
      "outputs": [
        {
          "internalType": "bool",
          "name": "",
          "type": "bool"
        }
      ],
      "stateMutability": "view",
      "type": "function"
    },
    {
      "inputs": [],
      "name": "timelock",
      "outputs": [
        {
          "internalType": "address",
          "name": "",
          "type": "address"
        }
      ],
      "stateMutability": "view",
      "type": "function"
    },
    {
      "inputs": [],
      "name": "token",
      "outputs": [
        {
          "internalType": "contract IVotes",
          "name": "",
          "type": "address"
        }
      ],
      "stateMutability": "view",
      "type": "function"
    },
    {
      "inputs": [
        {
          "internalType": "uint256",
          "name": "newQuorumNumerator",
          "type": "uint256"
        }
      ],
      "name": "updateQuorumNumerator",
      "outputs": [],
      "stateMutability": "nonpayable",
      "type": "function"
    },
    {
      "inputs": [
        {
          "internalType": "contract TimelockController",
          "name": "newTimelock",
          "type": "address"
        }
      ],
      "name": "updateTimelock",
      "outputs": [],
      "stateMutability": "nonpayable",
      "type": "function"
    },
    {
      "inputs": [],
      "name": "version",
      "outputs": [
        {
          "internalType": "string",
          "name": "",
          "type": "string"
        }
      ],
      "stateMutability": "view",
      "type": "function"
    },
    {
      "inputs": [],
      "name": "votingDelay",
      "outputs": [
        {
          "internalType": "uint256",
          "name": "",
          "type": "uint256"
        }
      ],
      "stateMutability": "view",
      "type": "function"
    },
    {
      "inputs": [],
      "name": "votingDelay_",
      "outputs": [
        {
          "internalType": "uint256",
          "name": "",
          "type": "uint256"
        }
      ],
      "stateMutability": "view",
      "type": "function"
    },
    {
      "inputs": [],
      "name": "votingPeriod",
      "outputs": [
        {
          "internalType": "uint256",
          "name": "",
          "type": "uint256"
        }
      ],
      "stateMutability": "view",
      "type": "function"
    },
    {
      "inputs": [],
      "name": "votingPeriod_",
      "outputs": [
        {
          "internalType": "uint256",
          "name": "",
          "type": "uint256"
        }
      ],
      "stateMutability": "view",
      "type": "function"
    },
    {
      "stateMutability": "payable",
      "type": "receive"
    }
  ],
  "bytecode": "0x6101606040526001600b553480156200001757600080fd5b5060405162003c0638038062003c068339810160408190526200003a9162000362565b8383866040518060400160405280601381526020017f4441707020556e69766572736974792044414f0000000000000000000000000081525080620000846200016b60201b60201c565b815160208084019190912082518383012060e08290526101008190524660a0818152604080517f8b73c3c69bb8fe3d512ecc4cf759cc79239f7b179b0ffacaa9a75d522b39400f81880181905281830187905260608201869052608082019490945230818401528151808203909301835260c00190528051940193909320919290916080523060601b60c05261012052505082516200012d9250600091506020840190620002bc565b505060601b6001600160601b031916610140526200014b8162000186565b50620001578162000253565b50600991909155600a55506200040f915050565b6040805180820190915260018152603160f81b602082015290565b60648111156200020e5760405162461bcd60e51b815260206004820152604360248201527f476f7665726e6f72566f74657351756f72756d4672616374696f6e3a2071756f60448201527f72756d4e756d657261746f72206f7665722071756f72756d44656e6f6d696e616064820152623a37b960e91b608482015260a40160405180910390fd5b600580549082905560408051828152602081018490527f0553476bf02ef2726e8ce5ced78d63e26e602e4a2257b1f559418e24b4633997910160405180910390a15050565b600654604080516001600160a01b03928316815291831660208301527f08f74ea46ef7894f65eabfb5e6e695de773a000b47c529ab559178069b226401910160405180910390a1600680546001600160a01b0319166001600160a01b0392909216919091179055565b828054620002ca90620003b9565b90600052602060002090601f016020900481019282620002ee576000855562000339565b82601f106200030957805160ff191683800117855562000339565b8280016001018555821562000339579182015b82811115620003395782518255916020019190600101906200031c565b50620003479291506200034b565b5090565b5b808211156200034757600081556001016200034c565b600080600080600060a086880312156200037a578081fd5b85516200038781620003f6565b60208701519095506200039a81620003f6565b6040870151606088015160809098015196999198509695945092505050565b600181811c90821680620003ce57607f821691505b60208210811415620003f057634e487b7160e01b600052602260045260246000fd5b50919050565b6001600160a01b03811681146200040c57600080fd5b50565b60805160a05160c05160601c60e05161010051610120516101405160601c6137886200047e6000396000818161086801528181611c770152611dc001526000611f4b01526000611f9a01526000611f7501526000611ece01526000611ef801526000611f2201526137886000f3fe60806040526004361061024a5760003560e01c80637b3c71d311610139578063c01f9e37116100b6578063dd4e2ba51161007a578063dd4e2ba514610770578063deaaa7cc146107b6578063eb9019d4146107ea578063f23a6e611461080a578063f8ce560a14610836578063fc0c546a1461085657600080fd5b8063c01f9e37146106c8578063c28bc2fa146106e8578063c59057e414610708578063c8d06ff914610728578063d33219b41461073e57600080fd5b8063a7713a70116100fd578063a7713a7014610633578063a890c91014610648578063ab58fb8e14610668578063b58131b014610688578063bc197c811461069c57600080fd5b80637b3c71d3146105a95780637d5e81e2146105c95780638b02dbde146105e957806397c3d334146105ff5780639a802a6d1461061357600080fd5b80632fe3e261116101c7578063438596321161018b57806343859632146104a0578063544ffc9c146104ea57806354fd4d501461053f57806356781388146105695780635f398a141461058957600080fd5b80632fe3e261146103f45780633932abb1146104285780633bccf4fd1461043d5780633e4f49e61461045d57806342024c2b1461048a57600080fd5b806306fdde031161020e57806306fdde031461033b578063150b7a021461035d578063160cbed7146103a15780632656227d146103c15780632d63f693146103d457600080fd5b8063013cf08b1461027257806301ffc9a7146102ac57806302a251a3146102dc57806303420181146102fb57806306f3f9e61461031b57600080fd5b3661026d573061025861088a565b6001600160a01b03161461026b57600080fd5b005b600080fd5b34801561027e57600080fd5b5061029261028d366004612eda565b6108a3565b6040516102a39594939291906134d2565b60405180910390f35b3480156102b857600080fd5b506102cc6102c7366004612e96565b61095a565b60405190151581526020016102a3565b3480156102e857600080fd5b50600a545b6040519081526020016102a3565b34801561030757600080fd5b506102ed610316366004612ff1565b61096b565b34801561032757600080fd5b5061026b610336366004612eda565b610a63565b34801561034757600080fd5b50610350610afb565b6040516102a39190613318565b34801561036957600080fd5b50610388610378366004612b7c565b630a85bd0160e11b949350505050565b6040516001600160e01b031990911681526020016102a3565b3480156103ad57600080fd5b506102ed6103bc366004612d25565b610b8d565b6102ed6103cf366004612d25565b610db9565b3480156103e057600080fd5b506102ed6103ef366004612eda565b610ec2565b34801561040057600080fd5b506102ed7fb3b3f3b703cd84ce352197dcff232b1b5d3cfb2025ce47cf04742d0651f1af8881565b34801561043457600080fd5b506009546102ed565b34801561044957600080fd5b506102ed610458366004613094565b610ef9565b34801561046957600080fd5b5061047d610478366004612eda565b610f6f565b6040516102a391906132f0565b34801561049657600080fd5b506102ed600a5481565b3480156104ac57600080fd5b506102cc6104bb366004612ef2565b60008281526004602090815260408083206001600160a01b038516845260030190915290205460ff1692915050565b3480156104f657600080fd5b50610524610505366004612eda565b6000908152600460205260409020805460018201546002909201549092565b604080519384526020840192909252908201526060016102a3565b34801561054b57600080fd5b506040805180820190915260018152603160f81b6020820152610350565b34801561057557600080fd5b506102ed610584366004612f21565b610f7a565b34801561059557600080fd5b506102ed6105a4366004612f8b565b610fa3565b3480156105b557600080fd5b506102ed6105c4366004612f4c565b610fed565b3480156105d557600080fd5b506102ed6105e4366004612db0565b61103f565b3480156105f557600080fd5b506102ed60095481565b34801561060b57600080fd5b5060646102ed565b34801561061f57600080fd5b506102ed61062e366004612ccf565b6110eb565b34801561063f57600080fd5b506005546102ed565b34801561065457600080fd5b5061026b610663366004612ebe565b611102565b34801561067457600080fd5b506102ed610683366004612eda565b61118e565b34801561069457600080fd5b5060006102ed565b3480156106a857600080fd5b506103886106b7366004612ad3565b63bc197c8160e01b95945050505050565b3480156106d457600080fd5b506102ed6106e3366004612eda565b611237565b3480156106f457600080fd5b5061026b610703366004612c76565b611266565b34801561071457600080fd5b506102ed610723366004612d25565b611332565b34801561073457600080fd5b506102ed600b5481565b34801561074a57600080fd5b506006546001600160a01b03165b6040516001600160a01b0390911681526020016102a3565b34801561077c57600080fd5b506040805180820190915260208082527f737570706f72743d627261766f2671756f72756d3d666f722c6162737461696e90820152610350565b3480156107c257600080fd5b506102ed7f150214d74d59b7d1e90c73fc22ef3d991dd0a76b046543d4d80ab92d2a50328f81565b3480156107f657600080fd5b506102ed610805366004612c4b565b61136c565b34801561081657600080fd5b50610388610825366004612be5565b63f23a6e6160e01b95945050505050565b34801561084257600080fd5b506102ed610851366004612eda565b611378565b34801561086257600080fd5b506107587f000000000000000000000000000000000000000000000000000000000000000081565b600061089e6006546001600160a01b031690565b905090565b600860205260009081526040902080546001820180549192916108c590613692565b80601f01602080910402602001604051908101604052809291908181526020018280546108f190613692565b801561093e5780601f106109135761010080835404028352916020019161093e565b820191906000526020600020905b81548152906001019060200180831161092157829003601f168201915b5050505050908060020154908060030154908060040154905085565b600061096582611383565b92915050565b600080610a0f610a077fb3b3f3b703cd84ce352197dcff232b1b5d3cfb2025ce47cf04742d0651f1af888c8c8c8c6040516109a79291906131d3565b60405180910390208b805190602001206040516020016109ec959493929190948552602085019390935260ff9190911660408401526060830152608082015260a00190565b604051602081830303815290604052805190602001206113a8565b8686866113f6565b9050610a558a828b8b8b8080601f0160208091040260200160405190810160405280939291908181526020018383808284376000920191909152508d9250611414915050565b9a9950505050505050505050565b610a6b61088a565b6001600160a01b0316336001600160a01b031614610aa45760405162461bcd60e51b8152600401610a9b9061332b565b60405180910390fd5b30610aad61088a565b6001600160a01b031614610aef5760008036604051610acd9291906131d3565b604051809103902090505b80610ae36002611584565b14610aed57610ad8565b505b610af881611610565b50565b606060008054610b0a90613692565b80601f0160208091040260200160405190810160405280929190818152602001828054610b3690613692565b8015610b835780601f10610b5857610100808354040283529160200191610b83565b820191906000526020600020905b815481529060010190602001808311610b6657829003601f168201915b5050505050905090565b600080610b9c86868686611332565b90506004610ba982610f6f565b6007811115610bc857634e487b7160e01b600052602160045260246000fd5b14610be55760405162461bcd60e51b8152600401610a9b906133a3565b6006546040805163793d064960e11b815290516000926001600160a01b03169163f27a0c92916004808301926020929190829003018186803b158015610c2a57600080fd5b505afa158015610c3e573d6000803e3d6000fd5b505050506040513d601f19601f82011682018060405250810190610c629190612e7e565b60065460405163b1c5f42760e01b81529192506001600160a01b03169063b1c5f42790610c9c908a908a908a906000908b9060040161324a565b60206040518083038186803b158015610cb457600080fd5b505afa158015610cc8573d6000803e3d6000fd5b505050506040513d601f19601f82011682018060405250810190610cec9190612e7e565b6000838152600760205260408082209290925560065491516308f2a0bb60e41b81526001600160a01b0390921691638f2a0bb091610d37918b918b918b91908b908990600401613298565b600060405180830381600087803b158015610d5157600080fd5b505af1158015610d65573d6000803e3d6000fd5b505050507f9a2e42fd6722813d69113e7d0079d3d940171428df7373df9c7f7617cfda2892828242610d9791906135c9565b6040805192835260208301919091520160405180910390a15095945050505050565b600080610dc886868686611332565b90506000610dd582610f6f565b90506004816007811115610df957634e487b7160e01b600052602160045260246000fd5b1480610e2457506005816007811115610e2257634e487b7160e01b600052602160045260246000fd5b145b610e405760405162461bcd60e51b8152600401610a9b906133a3565b600082815260016020818152604092839020600201805460ff191690921790915590518381527f712ae1383f79ac853f8d882153778e0260ef8f03b504e2866e0593e04d2b291f910160405180910390a1610e9e82888888886116d8565b610eab8288888888611796565b610eb882888888886117a3565b5095945050505050565b60008181526001602090815260408083208151928301909152546001600160401b0316908190525b6001600160401b031692915050565b604080517f150214d74d59b7d1e90c73fc22ef3d991dd0a76b046543d4d80ab92d2a50328f602082015290810186905260ff851660608201526000908190610f4790610a07906080016109ec565b9050610f64878288604051806020016040528060008152506117e0565b979650505050505050565b60006109658261180c565b600080339050610f9b848285604051806020016040528060008152506117e0565b949350505050565b600080339050610f6487828888888080601f0160208091040260200160405190810160405280939291908181526020018383808284376000920191909152508a9250611414915050565b60008033905061103586828787878080601f0160208091040260200160405190810160405280939291908181526020018383808284376000920191909152506117e092505050565b9695505050505050565b60008061104e86868686611982565b9050600061105b82610ec2565b9050600061106883611237565b6040805160a081018252600b5480825260208083018a8152838501899052606084018890526080840186905260009283526008825293909120825181559251805194955091936110be926001850192019061281d565b50604082015160028201556060820151600382015560809091015160049091015550909695505050505050565b60006110f8848484611c4e565b90505b9392505050565b61110a61088a565b6001600160a01b0316336001600160a01b03161461113a5760405162461bcd60e51b8152600401610a9b9061332b565b3061114361088a565b6001600160a01b03161461118557600080366040516111639291906131d3565b604051809103902090505b806111796002611584565b146111835761116e565b505b610af881611cf3565b60065460008281526007602052604080822054905163d45c443560e01b81526004810191909152909182916001600160a01b039091169063d45c44359060240160206040518083038186803b1580156111e657600080fd5b505afa1580156111fa573d6000803e3d6000fd5b505050506040513d601f19601f8201168201806040525081019061121e9190612e7e565b90508060011461122e57806110fb565b60009392505050565b60008181526001602081815260408084208151928301909152909101546001600160401b031690819052610eea565b61126e61088a565b6001600160a01b0316336001600160a01b03161461129e5760405162461bcd60e51b8152600401610a9b9061332b565b306112a761088a565b6001600160a01b0316146112e957600080366040516112c79291906131d3565b604051809103902090505b806112dd6002611584565b146112e7576112d2565b505b61132b8483838080601f016020809104026020016040519081016040528093929190818152602001838380828437600092019190915250889250611d5c915050565b5050505050565b60008484848460405160200161134b94939291906131ff565b60408051601f19818403018152919052805160209091012095945050505050565b60006110fb8383611d82565b600061096582611da3565b60006001600160e01b03198216636e665ced60e01b1480610965575061096582611e56565b60006109656113b5611ec1565b8360405161190160f01b6020820152602281018390526042810182905260009060620160405160208183030381529060405280519060200120905092915050565b600080600061140787878787611fe8565b91509150610eb8816120d5565b600085815260016020819052604082209061142e88610f6f565b600781111561144d57634e487b7160e01b600052602160045260246000fd5b146114a65760405162461bcd60e51b815260206004820152602360248201527f476f7665726e6f723a20766f7465206e6f742063757272656e746c792061637460448201526269766560e81b6064820152608401610a9b565b604080516020810190915281546001600160401b0316908190526000906114cf90889086611c4e565b90506114de88888884886122d6565b835161153057866001600160a01b03167fb8e138887d0aa13bab447e82de9d5c1777041ecd21ca36ba824ff1e6c07ddda4898884896040516115239493929190613508565b60405180910390a2610f64565b866001600160a01b03167fe2babfbac5889a709b63bb7f598b324e08bc5a4fb9ec647fb3cbc9ec07eb87128988848989604051611571959493929190613530565b60405180910390a2979650505050505050565b60006115a38254600f81810b810b600160801b909204810b900b131590565b156115c157604051631ed9509560e11b815260040160405180910390fd5b508054600f90810b80820b820b600090815260018085016020526040822080549290558454920190920b6001600160801b03166fffffffffffffffffffffffffffffffff199091161790915590565b60648111156116935760405162461bcd60e51b815260206004820152604360248201527f476f7665726e6f72566f74657351756f72756d4672616374696f6e3a2071756f60448201527f72756d4e756d657261746f72206f7665722071756f72756d44656e6f6d696e616064820152623a37b960e91b608482015260a401610a9b565b600580549082905560408051828152602081018490527f0553476bf02ef2726e8ce5ced78d63e26e602e4a2257b1f559418e24b4633997910160405180910390a15050565b306116e161088a565b6001600160a01b03161461132b5760005b845181101561178e57306001600160a01b031685828151811061172557634e487b7160e01b600052603260045260246000fd5b60200260200101516001600160a01b0316141561177e5761177e83828151811061175f57634e487b7160e01b600052603260045260246000fd5b602002602001015180519060200120600261245590919063ffffffff16565b611787816136cd565b90506116f2565b505050505050565b61132b858585858561249b565b306117ac61088a565b6001600160a01b03161461132b57600254600f81810b810b600160801b909204810b900b131561132b57600060025561132b565b6000611803858585856117fe60408051602081019091526000815290565b611414565b95945050505050565b6000806118188361250f565b9050600481600781111561183c57634e487b7160e01b600052602160045260246000fd5b146118475792915050565b60008381526007602052604090205480611862575092915050565b600654604051632ab0f52960e01b8152600481018390526001600160a01b0390911690632ab0f5299060240160206040518083038186803b1580156118a657600080fd5b505afa1580156118ba573d6000803e3d6000fd5b505050506040513d601f19601f820116820180604052508101906118de9190612e5e565b156118ed575060079392505050565b600654604051632c258a9f60e11b8152600481018390526001600160a01b039091169063584b153e9060240160206040518083038186803b15801561193157600080fd5b505afa158015611945573d6000803e3d6000fd5b505050506040513d601f19601f820116820180604052508101906119699190612e5e565b15611978575060059392505050565b5060029392505050565b6000806119943361080560014361364b565b10156119fc5760405162461bcd60e51b815260206004820152603160248201527f476f7665726e6f723a2070726f706f73657220766f7465732062656c6f7720706044820152701c9bdc1bdcd85b081d1a1c995cda1bdb19607a1b6064820152608401610a9b565b6000611a118686868680519060200120611332565b90508451865114611a345760405162461bcd60e51b8152600401610a9b90613362565b8351865114611a555760405162461bcd60e51b8152600401610a9b90613362565b6000865111611aa65760405162461bcd60e51b815260206004820152601860248201527f476f7665726e6f723a20656d7074792070726f706f73616c00000000000000006044820152606401610a9b565b600081815260016020908152604091829020825191820190925281546001600160401b03169081905215611b265760405162461bcd60e51b815260206004820152602160248201527f476f7665726e6f723a2070726f706f73616c20616c72656164792065786973746044820152607360f81b6064820152608401610a9b565b6000611b39611b3460095490565b61261b565b611b424361261b565b611b4c91906135e1565b90506000611b5c611b34600a5490565b611b6690836135e1565b835467ffffffffffffffff19166001600160401b038416178455905060018301805467ffffffffffffffff19166001600160401b0383161790557f7d84a6263ae0d98d3329bd7b46bb4e8d6f98cd35a7adb45c274c8b7fd5ebd5e084338b8b8d516001600160401b03811115611bec57634e487b7160e01b600052604160045260246000fd5b604051908082528060200260200182016040528015611c1f57816020015b6060815260200190600190039081611c0a5790505b508c88888e604051611c39999897969594939291906133e4565b60405180910390a15091979650505050505050565b604051630748d63560e31b81526001600160a01b038481166004830152602482018490526000917f000000000000000000000000000000000000000000000000000000000000000090911690633a46b1a89060440160206040518083038186803b158015611cbb57600080fd5b505afa158015611ccf573d6000803e3d6000fd5b505050506040513d601f19601f820116820180604052508101906110f89190612e7e565b600654604080516001600160a01b03928316815291831660208301527f08f74ea46ef7894f65eabfb5e6e695de773a000b47c529ab559178069b226401910160405180910390a1600680546001600160a01b0319166001600160a01b0392909216919091179055565b60606110f884848460405180606001604052806029815260200161372a60299139612687565b60006110fb8383611d9e60408051602081019091526000815290565b611c4e565b60006064600554604051632394e7a360e21b8152600481018590527f00000000000000000000000000000000000000000000000000000000000000006001600160a01b031690638e539e8c9060240160206040518083038186803b158015611e0a57600080fd5b505afa158015611e1e573d6000803e3d6000fd5b505050506040513d601f19601f82011682018060405250810190611e429190612e7e565b611e4c919061362c565b610965919061360c565b60006001600160e01b0319821663bf26d89760e01b1480611e8757506001600160e01b031982166379dd796f60e01b145b80611ea257506001600160e01b03198216630271189760e51b145b8061096557506301ffc9a760e01b6001600160e01b0319831614610965565b6000306001600160a01b037f000000000000000000000000000000000000000000000000000000000000000016148015611f1a57507f000000000000000000000000000000000000000000000000000000000000000046145b15611f4457507f000000000000000000000000000000000000000000000000000000000000000090565b50604080517f00000000000000000000000000000000000000000000000000000000000000006020808301919091527f0000000000000000000000000000000000000000000000000000000000000000828401527f000000000000000000000000000000000000000000000000000000000000000060608301524660808301523060a0808401919091528351808403909101815260c0909201909252805191012090565b6000807f7fffffffffffffffffffffffffffffff5d576e7357a4501ddfe92f46681b20a083111561201f57506000905060036120cc565b8460ff16601b1415801561203757508460ff16601c14155b1561204857506000905060046120cc565b6040805160008082526020820180845289905260ff881692820192909252606081018690526080810185905260019060a0016020604051602081039080840390855afa15801561209c573d6000803e3d6000fd5b5050604051601f1901519150506001600160a01b0381166120c5576000600192509250506120cc565b9150600090505b94509492505050565b60008160048111156120f757634e487b7160e01b600052602160045260246000fd5b14156121005750565b600181600481111561212257634e487b7160e01b600052602160045260246000fd5b14156121705760405162461bcd60e51b815260206004820152601860248201527f45434453413a20696e76616c6964207369676e617475726500000000000000006044820152606401610a9b565b600281600481111561219257634e487b7160e01b600052602160045260246000fd5b14156121e05760405162461bcd60e51b815260206004820152601f60248201527f45434453413a20696e76616c6964207369676e6174757265206c656e677468006044820152606401610a9b565b600381600481111561220257634e487b7160e01b600052602160045260246000fd5b141561225b5760405162461bcd60e51b815260206004820152602260248201527f45434453413a20696e76616c6964207369676e6174757265202773272076616c604482015261756560f01b6064820152608401610a9b565b600481600481111561227d57634e487b7160e01b600052602160045260246000fd5b1415610af85760405162461bcd60e51b815260206004820152602260248201527f45434453413a20696e76616c6964207369676e6174757265202776272076616c604482015261756560f01b6064820152608401610a9b565b60008581526004602090815260408083206001600160a01b0388168452600381019092529091205460ff161561235e5760405162461bcd60e51b815260206004820152602760248201527f476f7665726e6f72566f74696e6753696d706c653a20766f746520616c726561604482015266191e4818d85cdd60ca1b6064820152608401610a9b565b6001600160a01b03851660009081526003820160205260408120805460ff1916600117905560ff168460ff1614156123af57828160000160008282546123a491906135c9565b9091555061178e9050565b60ff8416600114156123cf57828160010160008282546123a491906135c9565b60ff8416600214156123ef57828160020160008282546123a491906135c9565b60405162461bcd60e51b815260206004820152603560248201527f476f7665726e6f72566f74696e6753696d706c653a20696e76616c69642076616044820152746c756520666f7220656e756d20566f74655479706560581b6064820152608401610a9b565b8154600160801b90819004600f90810b80820b820b6000908152600180870160205260409091209490945584549301900b6001600160801b039081169091029116179055565b60065460405163e38335e560e01b81526001600160a01b039091169063e38335e59034906124d690889088908890600090899060040161324a565b6000604051808303818588803b1580156124ef57600080fd5b505af1158015612503573d6000803e3d6000fd5b50505050505050505050565b6000818152600160205260408120600281015460ff16156125335750600792915050565b6002810154610100900460ff161561254e5750600292915050565b600061255984610ec2565b9050806125a85760405162461bcd60e51b815260206004820152601d60248201527f476f7665726e6f723a20756e6b6e6f776e2070726f706f73616c2069640000006044820152606401610a9b565b4381106125b9575060009392505050565b60006125c485611237565b90504381106125d857506001949350505050565b6125e1856127ad565b8015612600575060008581526004602052604090208054600190910154115b1561261057506004949350505050565b506003949350505050565b60006001600160401b038211156126835760405162461bcd60e51b815260206004820152602660248201527f53616665436173743a2076616c756520646f65736e27742066697420696e203660448201526534206269747360d01b6064820152608401610a9b565b5090565b6060824710156126e85760405162461bcd60e51b815260206004820152602660248201527f416464726573733a20696e73756666696369656e742062616c616e636520666f6044820152651c8818d85b1b60d21b6064820152608401610a9b565b6001600160a01b0385163b61273f5760405162461bcd60e51b815260206004820152601d60248201527f416464726573733a2063616c6c20746f206e6f6e2d636f6e74726163740000006044820152606401610a9b565b600080866001600160a01b0316858760405161275b91906131e3565b60006040518083038185875af1925050503d8060008114612798576040519150601f19603f3d011682016040523d82523d6000602084013e61279d565b606091505b5091509150610f648282866127e4565b6000818152600460205260408120600281015460018201546127cf91906135c9565b6127db61085185610ec2565b11159392505050565b606083156127f35750816110fb565b8251156128035782518084602001fd5b8160405162461bcd60e51b8152600401610a9b9190613318565b82805461282990613692565b90600052602060002090601f01602090048101928261284b5760008555612891565b82601f1061286457805160ff1916838001178555612891565b82800160010185558215612891579182015b82811115612891578251825591602001919060010190612876565b506126839291505b808211156126835760008155600101612899565b60006001600160401b038311156128c6576128c66136fe565b6128d9601f8401601f1916602001613576565b90508281528383830111156128ed57600080fd5b828260208301376000602084830101529392505050565b600082601f830112612914578081fd5b81356020612929612924836135a6565b613576565b80838252828201915082860187848660051b8901011115612948578586fd5b855b8581101561296f57813561295d81613714565b8452928401929084019060010161294a565b5090979650505050505050565b600082601f83011261298c578081fd5b8135602061299c612924836135a6565b80838252828201915082860187848660051b89010111156129bb578586fd5b855b8581101561296f5781356001600160401b038111156129da578788fd5b6129e88a87838c0101612a9e565b85525092840192908401906001016129bd565b600082601f830112612a0b578081fd5b81356020612a1b612924836135a6565b80838252828201915082860187848660051b8901011115612a3a578586fd5b855b8581101561296f57813584529284019290840190600101612a3c565b60008083601f840112612a69578182fd5b5081356001600160401b03811115612a7f578182fd5b602083019150836020828501011115612a9757600080fd5b9250929050565b600082601f830112612aae578081fd5b6110fb838335602085016128ad565b803560ff81168114612ace57600080fd5b919050565b600080600080600060a08688031215612aea578081fd5b8535612af581613714565b94506020860135612b0581613714565b935060408601356001600160401b0380821115612b20578283fd5b612b2c89838a016129fb565b94506060880135915080821115612b41578283fd5b612b4d89838a016129fb565b93506080880135915080821115612b62578283fd5b50612b6f88828901612a9e565b9150509295509295909350565b60008060008060808587031215612b91578384fd5b8435612b9c81613714565b93506020850135612bac81613714565b92506040850135915060608501356001600160401b03811115612bcd578182fd5b612bd987828801612a9e565b91505092959194509250565b600080600080600060a08688031215612bfc578081fd5b8535612c0781613714565b94506020860135612c1781613714565b9350604086013592506060860135915060808601356001600160401b03811115612c3f578182fd5b612b6f88828901612a9e565b60008060408385031215612c5d578182fd5b8235612c6881613714565b946020939093013593505050565b60008060008060608587031215612c8b578182fd5b8435612c9681613714565b93506020850135925060408501356001600160401b03811115612cb7578283fd5b612cc387828801612a58565b95989497509550505050565b600080600060608486031215612ce3578081fd5b8335612cee81613714565b92506020840135915060408401356001600160401b03811115612d0f578182fd5b612d1b86828701612a9e565b9150509250925092565b60008060008060808587031215612d3a578182fd5b84356001600160401b0380821115612d50578384fd5b612d5c88838901612904565b95506020870135915080821115612d71578384fd5b612d7d888389016129fb565b94506040870135915080821115612d92578384fd5b50612d9f8782880161297c565b949793965093946060013593505050565b60008060008060808587031215612dc5578182fd5b84356001600160401b0380821115612ddb578384fd5b612de788838901612904565b95506020870135915080821115612dfc578384fd5b612e08888389016129fb565b94506040870135915080821115612e1d578384fd5b612e298883890161297c565b93506060870135915080821115612e3e578283fd5b508501601f81018713612e4f578182fd5b612bd9878235602084016128ad565b600060208284031215612e6f578081fd5b815180151581146110fb578182fd5b600060208284031215612e8f578081fd5b5051919050565b600060208284031215612ea7578081fd5b81356001600160e01b0319811681146110fb578182fd5b600060208284031215612ecf578081fd5b81356110fb81613714565b600060208284031215612eeb578081fd5b5035919050565b60008060408385031215612f04578182fd5b823591506020830135612f1681613714565b809150509250929050565b60008060408385031215612f33578182fd5b82359150612f4360208401612abd565b90509250929050565b60008060008060608587031215612f61578182fd5b84359350612f7160208601612abd565b925060408501356001600160401b03811115612cb7578283fd5b600080600080600060808688031215612fa2578283fd5b85359450612fb260208701612abd565b935060408601356001600160401b0380821115612fcd578485fd5b612fd989838a01612a58565b90955093506060880135915080821115612b62578283fd5b60008060008060008060008060e0898b03121561300c578586fd5b8835975061301c60208a01612abd565b965060408901356001600160401b0380821115613037578788fd5b6130438c838d01612a58565b909850965060608b013591508082111561305b578485fd5b506130688b828c01612a9e565b94505061307760808a01612abd565b925060a0890135915060c089013590509295985092959890939650565b600080600080600060a086880312156130ab578283fd5b853594506130bb60208701612abd565b93506130c960408701612abd565b94979396509394606081013594506080013592915050565b6000815180845260208085019450808401835b838110156131195781516001600160a01b0316875295820195908201906001016130f4565b509495945050505050565b600081518084526020808501808196508360051b81019150828601855b8581101561316b5782840389526131598483516131a7565b98850198935090840190600101613141565b5091979650505050505050565b6000815180845260208085019450808401835b838110156131195781518752958201959082019060010161318b565b600081518084526131bf816020860160208601613662565b601f01601f19169290920160200192915050565b8183823760009101908152919050565b600082516131f5818460208701613662565b9190910192915050565b60808152600061321260808301876130e1565b82810360208401526132248187613178565b905082810360408401526132388186613124565b91505082606083015295945050505050565b60a08152600061325d60a08301886130e1565b828103602084015261326f8188613178565b905082810360408401526132838187613124565b60608401959095525050608001529392505050565b60c0815260006132ab60c08301896130e1565b82810360208401526132bd8189613178565b905082810360408401526132d18188613124565b60608401969096525050608081019290925260a0909101529392505050565b602081016008831061331257634e487b7160e01b600052602160045260246000fd5b91905290565b6020815260006110fb60208301846131a7565b60208082526018908201527f476f7665726e6f723a206f6e6c79476f7665726e616e63650000000000000000604082015260600190565b60208082526021908201527f476f7665726e6f723a20696e76616c69642070726f706f73616c206c656e67746040820152600d60fb1b606082015260800190565b60208082526021908201527f476f7665726e6f723a2070726f706f73616c206e6f74207375636365737366756040820152601b60fa1b606082015260800190565b60006101208b8352602060018060a01b038c168185015281604085015261340d8285018c6130e1565b91508382036060850152613421828b613178565b915083820360808501528189518084528284019150828160051b850101838c01865b8381101561347157601f1987840301855261345f8383516131a7565b94860194925090850190600101613443565b505086810360a0880152613485818c613124565b9450505050506134a060c08401876001600160401b03169052565b6001600160401b03851660e08401528281036101008401526134c281856131a7565b9c9b505050505050505050505050565b85815260a0602082015260006134eb60a08301876131a7565b604083019590955250606081019290925260809091015292915050565b84815260ff8416602082015282604082015260806060820152600061103560808301846131a7565b85815260ff8516602082015283604082015260a06060820152600061355860a08301856131a7565b828103608084015261356a81856131a7565b98975050505050505050565b604051601f8201601f191681016001600160401b038111828210171561359e5761359e6136fe565b604052919050565b60006001600160401b038211156135bf576135bf6136fe565b5060051b60200190565b600082198211156135dc576135dc6136e8565b500190565b60006001600160401b03808316818516808303821115613603576136036136e8565b01949350505050565b60008261362757634e487b7160e01b81526012600452602481fd5b500490565b6000816000190483118215151615613646576136466136e8565b500290565b60008282101561365d5761365d6136e8565b500390565b60005b8381101561367d578181015183820152602001613665565b8381111561368c576000848401525b50505050565b600181811c908216806136a657607f821691505b602082108114156136c757634e487b7160e01b600052602260045260246000fd5b50919050565b60006000198214156136e1576136e16136e8565b5060010190565b634e487b7160e01b600052601160045260246000fd5b634e487b7160e01b600052604160045260246000fd5b6001600160a01b0381168114610af857600080fdfe416464726573733a206c6f772d6c6576656c2063616c6c20776974682076616c7565206661696c6564a26469706673582212201abdd22ade1f66e55a9ca536f1d4fe1a7395a06da354fe8905eb11a4692ec5d664736f6c63430008040033",
  "linkReferences": {},
  "deployedLinkReferences": {}
}